{
  "contractName": "StorageCDA",
  "abi": [
    {
      "constant": false,
      "inputs": [
        {
          "internalType": "string",
          "name": "_dni",
          "type": "string"
        },
        {
          "internalType": "string",
          "name": "_hashCDA",
          "type": "string"
        }
      ],
      "name": "createCDA",
      "outputs": [],
      "payable": false,
      "stateMutability": "nonpayable",
      "type": "function"
    },
    {
      "constant": true,
      "inputs": [
        {
          "internalType": "string",
          "name": "_dni",
          "type": "string"
        },
        {
          "internalType": "string",
          "name": "_hashCDA",
          "type": "string"
        }
      ],
      "name": "validateCDA",
      "outputs": [
        {
          "internalType": "bool",
          "name": "",
          "type": "bool"
        }
      ],
      "payable": false,
      "stateMutability": "view",
      "type": "function"
    },
    {
      "constant": true,
      "inputs": [
        {
          "internalType": "string",
          "name": "_hashCDA",
          "type": "string"
        }
      ],
      "name": "findHash",
      "outputs": [
        {
          "internalType": "bool",
          "name": "",
          "type": "bool"
        }
      ],
      "payable": false,
      "stateMutability": "view",
      "type": "function"
    },
    {
      "constant": true,
      "inputs": [
        {
          "internalType": "string",
          "name": "_dni",
          "type": "string"
        },
        {
          "internalType": "string",
          "name": "_hashCDA",
          "type": "string"
        }
      ],
      "name": "readCDA",
      "outputs": [
        {
          "internalType": "uint256",
          "name": "",
          "type": "uint256"
        },
        {
          "internalType": "string",
          "name": "",
          "type": "string"
        },
        {
          "internalType": "string",
          "name": "",
          "type": "string"
        }
      ],
      "payable": false,
      "stateMutability": "view",
      "type": "function"
    },
    {
      "constant": false,
      "inputs": [
        {
          "internalType": "string",
          "name": "_dni",
          "type": "string"
        },
        {
          "internalType": "string",
          "name": "_hashCDA",
          "type": "string"
        }
      ],
      "name": "updateCDA",
      "outputs": [],
      "payable": false,
      "stateMutability": "nonpayable",
      "type": "function"
    },
    {
      "constant": false,
      "inputs": [
        {
          "internalType": "string",
          "name": "_dni",
          "type": "string"
        },
        {
          "internalType": "string",
          "name": "_hashCDA",
          "type": "string"
        }
      ],
      "name": "deleteCDA",
      "outputs": [],
      "payable": false,
      "stateMutability": "nonpayable",
      "type": "function"
    },
    {
      "constant": true,
      "inputs": [],
      "name": "numbersCDAs",
      "outputs": [
        {
          "internalType": "uint256",
          "name": "",
          "type": "uint256"
        }
      ],
      "payable": false,
      "stateMutability": "view",
      "type": "function"
    }
  ],
  "bytecode": "0x608060405234801561001057600080fd5b506114f6806100206000396000f3fe608060405234801561001057600080fd5b506004361061007d5760003560e01c8063875012941161005b57806387501294146104fd578063997dd8991461064f578063a1b7f2bb146107a1578063b3fd67f1146108f35761007d565b80631c993fab14610082578063484f7ebd146102c057806370c751071461042a575b600080fd5b6101d26004803603604081101561009857600080fd5b81019080803590602001906401000000008111156100b557600080fd5b8201836020820111156100c757600080fd5b803590602001918460018302840111640100000000831117156100e957600080fd5b91908080601f016020809104026020016040519081016040528093929190818152602001838380828437600081840152601f19601f8201169050808301925050505050505091929192908035906020019064010000000081111561014c57600080fd5b82018360208201111561015e57600080fd5b8035906020019184600183028401116401000000008311171561018057600080fd5b91908080601f016020809104026020016040519081016040528093929190818152602001838380828437600081840152601f19601f820116905080830192505050505050509192919290505050610911565b604051808481526020018060200180602001838103835285818151815260200191508051906020019080838360005b8381101561021c578082015181840152602081019050610201565b50505050905090810190601f1680156102495780820380516001836020036101000a031916815260200191505b50838103825284818151815260200191508051906020019080838360005b83811015610282578082015181840152602081019050610267565b50505050905090810190601f1680156102af5780820380516001836020036101000a031916815260200191505b509550505050505060405180910390f35b610410600480360360408110156102d657600080fd5b81019080803590602001906401000000008111156102f357600080fd5b82018360208201111561030557600080fd5b8035906020019184600183028401116401000000008311171561032757600080fd5b91908080601f016020809104026020016040519081016040528093929190818152602001838380828437600081840152601f19601f8201169050808301925050505050505091929192908035906020019064010000000081111561038a57600080fd5b82018360208201111561039c57600080fd5b803590602001918460018302840111640100000000831117156103be57600080fd5b91908080601f016020809104026020016040519081016040528093929190818152602001838380828437600081840152601f19601f820116905080830192505050505050509192919290505050610ac5565b604051808215151515815260200191505060405180910390f35b6104e36004803603602081101561044057600080fd5b810190808035906020019064010000000081111561045d57600080fd5b82018360208201111561046f57600080fd5b8035906020019184600183028401116401000000008311171561049157600080fd5b91908080601f016020809104026020016040519081016040528093929190818152602001838380828437600081840152601f19601f820116905080830192505050505050509192919290505050610d1a565b604051808215151515815260200191505060405180910390f35b61064d6004803603604081101561051357600080fd5b810190808035906020019064010000000081111561053057600080fd5b82018360208201111561054257600080fd5b8035906020019184600183028401116401000000008311171561056457600080fd5b91908080601f016020809104026020016040519081016040528093929190818152602001838380828437600081840152601f19601f820116905080830192505050505050509192919290803590602001906401000000008111156105c757600080fd5b8201836020820111156105d957600080fd5b803590602001918460018302840111640100000000831117156105fb57600080fd5b91908080601f016020809104026020016040519081016040528093929190818152602001838380828437600081840152601f19601f820116905080830192505050505050509192919290505050610e5c565b005b61079f6004803603604081101561066557600080fd5b810190808035906020019064010000000081111561068257600080fd5b82018360208201111561069457600080fd5b803590602001918460018302840111640100000000831117156106b657600080fd5b91908080601f016020809104026020016040519081016040528093929190818152602001838380828437600081840152601f19601f8201169050808301925050505050505091929192908035906020019064010000000081111561071957600080fd5b82018360208201111561072b57600080fd5b8035906020019184600183028401116401000000008311171561074d57600080fd5b91908080601f016020809104026020016040519081016040528093929190818152602001838380828437600081840152601f19601f820116905080830192505050505050509192919290505050610eb5565b005b6108f1600480360360408110156107b757600080fd5b81019080803590602001906401000000008111156107d457600080fd5b8201836020820111156107e657600080fd5b8035906020019184600183028401116401000000008311171561080857600080fd5b91908080601f016020809104026020016040519081016040528093929190818152602001838380828437600081840152601f19601f8201169050808301925050505050505091929192908035906020019064010000000081111561086b57600080fd5b82018360208201111561087d57600080fd5b8035906020019184600183028401116401000000008311171561089f57600080fd5b91908080601f016020809104026020016040519081016040528093929190818152602001838380828437600081840152601f19601f820116905080830192505050505050509192919290505050610fcc565b005b6108fb611045565b6040518082815260200191505060405180910390f35b600060608060006109228686611057565b90506001818154811061093157fe5b9060005260206000209060030201600001546001828154811061095057fe5b90600052602060002090600302016001016001838154811061096e57fe5b9060005260206000209060030201600201818054600181600116156101000203166002900480601f016020809104026020016040519081016040528092919081815260200182805460018160011615610100020316600290048015610a145780601f106109e957610100808354040283529160200191610a14565b820191906000526020600020905b8154815290600101906020018083116109f757829003601f168201915b50505050509150808054600181600116156101000203166002900480601f016020809104026020016040519081016040528092919081815260200182805460018160011615610100020316600290048015610ab05780601f10610a8557610100808354040283529160200191610ab0565b820191906000526020600020905b815481529060010190602001808311610a9357829003601f168201915b50505050509050935093509350509250925092565b600080600090505b600180549050811015610d1257836040516020018082805190602001908083835b60208310610b115780518252602082019150602081019050602083039250610aee565b6001836020036101000a0380198251168184511680821785525050505050509050019150506040516020818303038152906040528051906020012060018281548110610b5957fe5b90600052602060002090600302016001016040516020018082805460018160011615610100020316600290048015610bc85780601f10610ba6576101008083540402835291820191610bc8565b820191906000526020600020905b815481529060010190602001808311610bb4575b505091505060405160208183030381529060405280519060200120148015610cf65750826040516020018082805190602001908083835b60208310610c225780518252602082019150602081019050602083039250610bff565b6001836020036101000a0380198251168184511680821785525050505050509050019150506040516020818303038152906040528051906020012060018281548110610c6a57fe5b90600052602060002090600302016002016040516020018082805460018160011615610100020316600290048015610cd95780601f10610cb7576101008083540402835291820191610cd9565b820191906000526020600020905b815481529060010190602001808311610cc5575b505091505060405160208183030381529060405280519060200120145b15610d05576001915050610d14565b8080600101915050610acd565b505b92915050565b600080600090505b600180549050811015610e5557826040516020018082805190602001908083835b60208310610d665780518252602082019150602081019050602083039250610d43565b6001836020036101000a0380198251168184511680821785525050505050509050019150506040516020818303038152906040528051906020012060018281548110610dae57fe5b90600052602060002090600302016002016040516020018082805460018160011615610100020316600290048015610e1d5780601f10610dfb576101008083540402835291820191610e1d565b820191906000526020600020905b815481529060010190602001808311610e09575b5050915050604051602081830303815290604052805190602001201415610e48576001915050610e57565b8080600101915050610d22565b505b919050565b6000610e688383611057565b905060018181548110610e7757fe5b9060005260206000209060030201600080820160009055600182016000610e9e91906112fb565b600282016000610eae91906112fb565b5050505050565b6000610ec082610d1a565b9050600015158115151415610f76576001604051806060016040528060005481526020018581526020018481525090806001815401808255809150509060018203906000526020600020906003020160009091929091909150600082015181600001556020820151816001019080519060200190610f3f929190611343565b506040820151816002019080519060200190610f5c929190611343565b505050506000808154809291906001019190505550610fc7565b6040517f08c379a00000000000000000000000000000000000000000000000000000000081526004018080602001828103825260318152602001806114916031913960400191505060405180910390fd5b505050565b6000610fd88383611057565b90508260018281548110610fe857fe5b9060005260206000209060030201600101908051906020019061100c9291906113c3565b50816001828154811061101b57fe5b9060005260206000209060030201600201908051906020019061103f9291906113c3565b50505050565b60008060018054905090508091505090565b600080600090505b6001805490508110156112a357836040516020018082805190602001908083835b602083106110a35780518252602082019150602081019050602083039250611080565b6001836020036101000a03801982511681845116808217855250505050505090500191505060405160208183030381529060405280519060200120600182815481106110eb57fe5b9060005260206000209060030201600101604051602001808280546001816001161561010002031660029004801561115a5780601f1061113857610100808354040283529182019161115a565b820191906000526020600020905b815481529060010190602001808311611146575b5050915050604051602081830303815290604052805190602001201480156112885750826040516020018082805190602001908083835b602083106111b45780518252602082019150602081019050602083039250611191565b6001836020036101000a03801982511681845116808217855250505050505090500191505060405160208183030381529060405280519060200120600182815481106111fc57fe5b9060005260206000209060030201600201604051602001808280546001816001161561010002031660029004801561126b5780601f1061124957610100808354040283529182019161126b565b820191906000526020600020905b815481529060010190602001808311611257575b505091505060405160208183030381529060405280519060200120145b1561129657809150506112f5565b808060010191505061105f565b506040517f08c379a00000000000000000000000000000000000000000000000000000000081526004018080602001828103825260288152602001806114696028913960400191505060405180910390fd5b92915050565b50805460018160011615610100020316600290046000825580601f106113215750611340565b601f01602090049060005260206000209081019061133f9190611443565b5b50565b828054600181600116156101000203166002900490600052602060002090601f016020900481019282601f1061138457805160ff19168380011785556113b2565b828001600101855582156113b2579182015b828111156113b1578251825591602001919060010190611396565b5b5090506113bf9190611443565b5090565b828054600181600116156101000203166002900490600052602060002090601f016020900481019282601f1061140457805160ff1916838001178555611432565b82800160010185558215611432579182015b82811115611431578251825591602001919060010190611416565b5b50905061143f9190611443565b5090565b61146591905b80821115611461576000816000905550600101611449565b5090565b9056fe456c20636572746966696361646f206469676974616c206e6f2066756520656e636f6e747261646f456c20636572746966696361646f206469676974616c2061636164c3a96d69636f20657374c3a1206475706c696361646fa265627a7a72315820178188c277a109a1400c6a25a2c0cde799931386eabc4fe2b83bbab47921db4164736f6c63430005100032",
  "source": "// SPDX-License-Identifier: MIT\r\npragma solidity >=0.4.21 <0.7.0;\r\n\r\ncontract StorageCDA{\r\n    uint nextId;\r\n    // Estrucutura del certificado digital académico\r\n    struct CDA{\r\n        uint id;\r\n        string dni;\r\n        string hashCDA;\r\n    }\r\n\r\n    // Arreglo de los certificados digitales académicos\r\n    CDA[] cdas;\r\n\r\n    // La función es para crear o registrar el CDA en la Blockchain de Ethereum\r\n    // El guión bajo es un estándar de solidity para los parámetros\r\n    function createCDA(string memory _dni, string memory _hashCDA) public {\r\n      // Reutilizo la función para saber si el dni y certificado ya fue registrado para no duplicar información\r\n        bool registered = findHash(_hashCDA);\r\n        if(registered == false){\r\n            cdas.push(CDA(nextId,_dni,_hashCDA));\r\n            nextId++;\r\n        }else{\r\n            revert(\"El certificado digital académico está duplicado\");\r\n        }\r\n   }\r\n\r\n   // Esta función busca en el arreglo de CDA por dni y hash del CDA, devuelve un booleano\r\n   // El certificado a validar debe coincidir en el dni y el hash del CDA para obtner un valor de TRUE\r\n\r\n   function validateCDA(string memory _dni, string memory _hashCDA) public view returns(bool){\r\n       for(uint i = 0; i < cdas.length; i++) {\r\n           if (keccak256(abi.encodePacked((cdas[i].dni))) == keccak256(abi.encodePacked((_dni))) && keccak256(abi.encodePacked((cdas[i].hashCDA))) == keccak256(abi.encodePacked((_hashCDA)))) {\r\n               return true;\r\n           }\r\n       }\r\n   }\r\n\r\n   function findHash(string memory _hashCDA) public view returns(bool){\r\n       for(uint i = 0; i < cdas.length; i++) {\r\n           if (keccak256(abi.encodePacked((cdas[i].hashCDA))) == keccak256(abi.encodePacked((_hashCDA)))) {\r\n               return true;\r\n           }\r\n       }\r\n   }\r\n\r\n   // Esta función busca el index de la ubicación en el arreglo para ser usado en las funciones de read, update y delete\r\n   function findIndex(string memory _dni, string memory _hashCDA) internal view returns (uint) {\r\n       for(uint i = 0; i < cdas.length; i++) {\r\n           if (keccak256(abi.encodePacked((cdas[i].dni))) == keccak256(abi.encodePacked((_dni))) && keccak256(abi.encodePacked((cdas[i].hashCDA))) == keccak256(abi.encodePacked((_hashCDA)))) {\r\n               return i;\r\n           }\r\n       }\r\n       // En caso de no encontrar el documento indica el siguiente mensaje\r\n       revert('El certificado digital no fue encontrado');\r\n   }\r\n\r\n   // Obtener la  información del CDA\r\n   function readCDA(string memory _dni, string memory _hashCDA) public view returns(uint, string memory, string memory){\r\n       uint index = findIndex(_dni,_hashCDA);\r\n       return (cdas[index].id,cdas[index].dni,cdas[index].hashCDA);\r\n   }\r\n\r\n   // Actualizar la  información del CDA\r\n   function updateCDA (string memory _dni, string memory _hashCDA) public {\r\n       uint index = findIndex(_dni,_hashCDA);\r\n       cdas[index].dni = _dni;\r\n       cdas[index].hashCDA = _hashCDA;\r\n   }\r\n\r\n   // Elimnar la  información del CDA\r\n   // El eliminar los datos de Blockchain no es posible,lo unico que se puede hacer es resetear estos datos.\r\n   function deleteCDA(string memory _dni, string memory _hashCDA) public{\r\n       uint index = findIndex(_dni,_hashCDA);\r\n       delete cdas[index];\r\n   }\r\n\r\n   // Función para obtener el número de registros de CDA\r\n   function numbersCDAs () public view returns(uint){\r\n       uint size = cdas.length;\r\n       return size;\r\n   }\r\n}\r\n",
  "sourcePath": "C:\\Users\\ASUS\\Documents\\PATO\\Tesis\\M-dulo-de-software-de-VCDA-por-Blockchain\\contracts\\StorageCDA.sol",
  "compiler": {
    "name": "solc",
    "version": "0.5.16+commit.9c3226ce.Emscripten.clang"
  },
  "schemaVersion": "3.4.3",
  "updatedAt": "2021-08-22T22:57:21.634Z",
  "networkType": "ethereum",
  "devdoc": {
    "methods": {}
  },
  "userdoc": {
    "methods": {}
  }
}