{
  "contractName": "StorageCAD",
  "abi": [
    {
      "inputs": [],
      "payable": false,
      "stateMutability": "nonpayable",
      "type": "constructor"
    },
    {
      "constant": true,
      "inputs": [],
      "name": "owner",
      "outputs": [
        {
          "internalType": "address",
          "name": "",
          "type": "address"
        }
      ],
      "payable": false,
      "stateMutability": "view",
      "type": "function"
    },
    {
      "constant": false,
      "inputs": [
        {
          "internalType": "string",
          "name": "_dni",
          "type": "string"
        },
        {
          "internalType": "string",
          "name": "_hashCAD",
          "type": "string"
        },
        {
          "internalType": "address",
          "name": "_owner",
          "type": "address"
        }
      ],
      "name": "registerCAD",
      "outputs": [],
      "payable": false,
      "stateMutability": "nonpayable",
      "type": "function"
    },
    {
      "constant": true,
      "inputs": [
        {
          "internalType": "string",
          "name": "_dni",
          "type": "string"
        },
        {
          "internalType": "string",
          "name": "_hashCAD",
          "type": "string"
        }
      ],
      "name": "validateCAD",
      "outputs": [
        {
          "internalType": "bool",
          "name": "",
          "type": "bool"
        }
      ],
      "payable": false,
      "stateMutability": "view",
      "type": "function"
    },
    {
      "constant": true,
      "inputs": [
        {
          "internalType": "string",
          "name": "_hashCAD",
          "type": "string"
        }
      ],
      "name": "findHash",
      "outputs": [
        {
          "internalType": "bool",
          "name": "",
          "type": "bool"
        }
      ],
      "payable": false,
      "stateMutability": "view",
      "type": "function"
    },
    {
      "constant": true,
      "inputs": [
        {
          "internalType": "string",
          "name": "_dni",
          "type": "string"
        },
        {
          "internalType": "string",
          "name": "_hashCAD",
          "type": "string"
        }
      ],
      "name": "readCAD",
      "outputs": [
        {
          "internalType": "uint256",
          "name": "",
          "type": "uint256"
        },
        {
          "internalType": "string",
          "name": "",
          "type": "string"
        },
        {
          "internalType": "string",
          "name": "",
          "type": "string"
        }
      ],
      "payable": false,
      "stateMutability": "view",
      "type": "function"
    },
    {
      "constant": false,
      "inputs": [
        {
          "internalType": "string",
          "name": "_dni",
          "type": "string"
        },
        {
          "internalType": "string",
          "name": "_hashCAD",
          "type": "string"
        }
      ],
      "name": "updateCAD",
      "outputs": [],
      "payable": false,
      "stateMutability": "nonpayable",
      "type": "function"
    },
    {
      "constant": false,
      "inputs": [
        {
          "internalType": "string",
          "name": "_dni",
          "type": "string"
        },
        {
          "internalType": "string",
          "name": "_hashCAD",
          "type": "string"
        }
      ],
      "name": "deleteCAD",
      "outputs": [],
      "payable": false,
      "stateMutability": "nonpayable",
      "type": "function"
    },
    {
      "constant": true,
      "inputs": [],
      "name": "numbersCADs",
      "outputs": [
        {
          "internalType": "uint256",
          "name": "",
          "type": "uint256"
        }
      ],
      "payable": false,
      "stateMutability": "view",
      "type": "function"
    }
  ],
  "bytecode": "0x608060405234801561001057600080fd5b50336000806101000a81548173ffffffffffffffffffffffffffffffffffffffff021916908373ffffffffffffffffffffffffffffffffffffffff16021790555061169a806100606000396000f3fe608060405234801561001057600080fd5b50600436106100885760003560e01c8063ba6481bf1161005b578063ba6481bf1461044e578063cfa069f8146105b8578063e1a1f93d146105d6578063fd7a64f61461074857610088565b8063029976311461008d57806324a4f74e146101df57806370c75107146103315780638da5cb5b14610404575b600080fd5b6101dd600480360360408110156100a357600080fd5b81019080803590602001906401000000008111156100c057600080fd5b8201836020820111156100d257600080fd5b803590602001918460018302840111640100000000831117156100f457600080fd5b91908080601f016020809104026020016040519081016040528093929190818152602001838380828437600081840152601f19601f8201169050808301925050505050505091929192908035906020019064010000000081111561015757600080fd5b82018360208201111561016957600080fd5b8035906020019184600183028401116401000000008311171561018b57600080fd5b91908080601f016020809104026020016040519081016040528093929190818152602001838380828437600081840152601f19601f820116905080830192505050505050509192919290505050610986565b005b61032f600480360360408110156101f557600080fd5b810190808035906020019064010000000081111561021257600080fd5b82018360208201111561022457600080fd5b8035906020019184600183028401116401000000008311171561024657600080fd5b91908080601f016020809104026020016040519081016040528093929190818152602001838380828437600081840152601f19601f820116905080830192505050505050509192919290803590602001906401000000008111156102a957600080fd5b8201836020820111156102bb57600080fd5b803590602001918460018302840111640100000000831117156102dd57600080fd5b91908080601f016020809104026020016040519081016040528093929190818152602001838380828437600081840152601f19601f8201169050808301925050505050505091929192905050506109ff565b005b6103ea6004803603602081101561034757600080fd5b810190808035906020019064010000000081111561036457600080fd5b82018360208201111561037657600080fd5b8035906020019184600183028401116401000000008311171561039857600080fd5b91908080601f016020809104026020016040519081016040528093929190818152602001838380828437600081840152601f19601f820116905080830192505050505050509192919290505050610a58565b604051808215151515815260200191505060405180910390f35b61040c610b9a565b604051808273ffffffffffffffffffffffffffffffffffffffff1673ffffffffffffffffffffffffffffffffffffffff16815260200191505060405180910390f35b61059e6004803603604081101561046457600080fd5b810190808035906020019064010000000081111561048157600080fd5b82018360208201111561049357600080fd5b803590602001918460018302840111640100000000831117156104b557600080fd5b91908080601f016020809104026020016040519081016040528093929190818152602001838380828437600081840152601f19601f8201169050808301925050505050505091929192908035906020019064010000000081111561051857600080fd5b82018360208201111561052a57600080fd5b8035906020019184600183028401116401000000008311171561054c57600080fd5b91908080601f016020809104026020016040519081016040528093929190818152602001838380828437600081840152601f19601f820116905080830192505050505050509192919290505050610bbf565b604051808215151515815260200191505060405180910390f35b6105c0610e14565b6040518082815260200191505060405180910390f35b610746600480360360608110156105ec57600080fd5b810190808035906020019064010000000081111561060957600080fd5b82018360208201111561061b57600080fd5b8035906020019184600183028401116401000000008311171561063d57600080fd5b91908080601f016020809104026020016040519081016040528093929190818152602001838380828437600081840152601f19601f820116905080830192505050505050509192919290803590602001906401000000008111156106a057600080fd5b8201836020820111156106b257600080fd5b803590602001918460018302840111640100000000831117156106d457600080fd5b91908080601f016020809104026020016040519081016040528093929190818152602001838380828437600081840152601f19601f820116905080830192505050505050509192919290803573ffffffffffffffffffffffffffffffffffffffff169060200190929190505050610e26565b005b6108986004803603604081101561075e57600080fd5b810190808035906020019064010000000081111561077b57600080fd5b82018360208201111561078d57600080fd5b803590602001918460018302840111640100000000831117156107af57600080fd5b91908080601f016020809104026020016040519081016040528093929190818152602001838380828437600081840152601f19601f8201169050808301925050505050505091929192908035906020019064010000000081111561081257600080fd5b82018360208201111561082457600080fd5b8035906020019184600183028401116401000000008311171561084657600080fd5b91908080601f016020809104026020016040519081016040528093929190818152602001838380828437600081840152601f19601f820116905080830192505050505050509192919290505050610fea565b604051808481526020018060200180602001838103835285818151815260200191508051906020019080838360005b838110156108e25780820151818401526020810190506108c7565b50505050905090810190601f16801561090f5780820380516001836020036101000a031916815260200191505b50838103825284818151815260200191508051906020019080838360005b8381101561094857808201518184015260208101905061092d565b50505050905090810190601f1680156109755780820380516001836020036101000a031916815260200191505b509550505050505060405180910390f35b6000610992838361119e565b905082600282815481106109a257fe5b906000526020600020906003020160010190805190602001906109c6929190611442565b5081600282815481106109d557fe5b906000526020600020906003020160020190805190602001906109f9929190611442565b50505050565b6000610a0b838361119e565b905060028181548110610a1a57fe5b9060005260206000209060030201600080820160009055600182016000610a4191906114c2565b600282016000610a5191906114c2565b5050505050565b600080600090505b600280549050811015610b9357826040516020018082805190602001908083835b60208310610aa45780518252602082019150602081019050602083039250610a81565b6001836020036101000a0380198251168184511680821785525050505050509050019150506040516020818303038152906040528051906020012060028281548110610aec57fe5b90600052602060002090600302016002016040516020018082805460018160011615610100020316600290048015610b5b5780601f10610b39576101008083540402835291820191610b5b565b820191906000526020600020905b815481529060010190602001808311610b47575b5050915050604051602081830303815290604052805190602001201415610b86576001915050610b95565b8080600101915050610a60565b505b919050565b6000809054906101000a900473ffffffffffffffffffffffffffffffffffffffff1681565b600080600090505b600280549050811015610e0c57836040516020018082805190602001908083835b60208310610c0b5780518252602082019150602081019050602083039250610be8565b6001836020036101000a0380198251168184511680821785525050505050509050019150506040516020818303038152906040528051906020012060028281548110610c5357fe5b90600052602060002090600302016001016040516020018082805460018160011615610100020316600290048015610cc25780601f10610ca0576101008083540402835291820191610cc2565b820191906000526020600020905b815481529060010190602001808311610cae575b505091505060405160208183030381529060405280519060200120148015610df05750826040516020018082805190602001908083835b60208310610d1c5780518252602082019150602081019050602083039250610cf9565b6001836020036101000a0380198251168184511680821785525050505050509050019150506040516020818303038152906040528051906020012060028281548110610d6457fe5b90600052602060002090600302016002016040516020018082805460018160011615610100020316600290048015610dd35780601f10610db1576101008083540402835291820191610dd3565b820191906000526020600020905b815481529060010190602001808311610dbf575b505091505060405160208183030381529060405280519060200120145b15610dff576001915050610e0e565b8080600101915050610bc7565b505b92915050565b60008060028054905090508091505090565b6000610e3183610a58565b9050600015158115151415610f93578173ffffffffffffffffffffffffffffffffffffffff166000809054906101000a900473ffffffffffffffffffffffffffffffffffffffff1673ffffffffffffffffffffffffffffffffffffffff161415610f3d576002604051806060016040528060015481526020018681526020018581525090806001815401808255809150509060018203906000526020600020906003020160009091929091909150600082015181600001556020820151816001019080519060200190610f0592919061150a565b506040820151816002019080519060200190610f2292919061150a565b50505050600160008154809291906001019190505550610f8e565b6040517f08c379a00000000000000000000000000000000000000000000000000000000081526004018080602001828103825260558152602001806116116055913960600191505060405180910390fd5b610fe4565b6040517f08c379a000000000000000000000000000000000000000000000000000000000815260040180806020018281038252602f8152602001806115e2602f913960400191505060405180910390fd5b50505050565b60006060806000610ffb868661119e565b90506002818154811061100a57fe5b9060005260206000209060030201600001546002828154811061102957fe5b90600052602060002090600302016001016002838154811061104757fe5b9060005260206000209060030201600201818054600181600116156101000203166002900480601f0160208091040260200160405190810160405280929190818152602001828054600181600116156101000203166002900480156110ed5780601f106110c2576101008083540402835291602001916110ed565b820191906000526020600020905b8154815290600101906020018083116110d057829003601f168201915b50505050509150808054600181600116156101000203166002900480601f0160208091040260200160405190810160405280929190818152602001828054600181600116156101000203166002900480156111895780601f1061115e57610100808354040283529160200191611189565b820191906000526020600020905b81548152906001019060200180831161116c57829003601f168201915b50505050509050935093509350509250925092565b600080600090505b6002805490508110156113ea57836040516020018082805190602001908083835b602083106111ea57805182526020820191506020810190506020830392506111c7565b6001836020036101000a038019825116818451168082178552505050505050905001915050604051602081830303815290604052805190602001206002828154811061123257fe5b906000526020600020906003020160010160405160200180828054600181600116156101000203166002900480156112a15780601f1061127f5761010080835404028352918201916112a1565b820191906000526020600020905b81548152906001019060200180831161128d575b5050915050604051602081830303815290604052805190602001201480156113cf5750826040516020018082805190602001908083835b602083106112fb57805182526020820191506020810190506020830392506112d8565b6001836020036101000a038019825116818451168082178552505050505050905001915050604051602081830303815290604052805190602001206002828154811061134357fe5b906000526020600020906003020160020160405160200180828054600181600116156101000203166002900480156113b25780601f106113905761010080835404028352918201916113b2565b820191906000526020600020905b81548152906001019060200180831161139e575b505091505060405160208183030381529060405280519060200120145b156113dd578091505061143c565b80806001019150506111a6565b506040517f08c379a00000000000000000000000000000000000000000000000000000000081526004018080602001828103825260328152602001806115b06032913960400191505060405180910390fd5b92915050565b828054600181600116156101000203166002900490600052602060002090601f016020900481019282601f1061148357805160ff19168380011785556114b1565b828001600101855582156114b1579182015b828111156114b0578251825591602001919060010190611495565b5b5090506114be919061158a565b5090565b50805460018160011615610100020316600290046000825580601f106114e85750611507565b601f016020900490600052602060002090810190611506919061158a565b5b50565b828054600181600116156101000203166002900490600052602060002090601f016020900481019282601f1061154b57805160ff1916838001178555611579565b82800160010185558215611579579182015b8281111561157857825182559160200191906001019061155d565b5b509050611586919061158a565b5090565b6115ac91905b808211156115a8576000816000905550600101611590565b5090565b9056fe456c20636572746966696361646f2061636164656d69636f206469676974616c206e6f2066756520656e636f6e747261646f456c20636572746966696361646f2061636164656d69636f206469676974616c2065737461206475706c696361646f496e74656e746f2072656769737472617220636f6e20756e61206375656e7461206469666572656e746520616c2070726f706965746172696f2064656c20646573706c69656775652064656c20636f6e747261746fa265627a7a72315820db1fe097981f8b552d188a200fa2762b09c8cca13eb17616917e9190da2ac02464736f6c63430005100032",
  "source": "// SPDX-License-Identifier: MIT\r\npragma solidity >=0.4.21 <0.7.0;\r\n\r\ncontract StorageCAD{\r\n    // Variables y funciones para obtener el propietario del despliegue del contrato\r\n    address public owner;\r\n    modifier restricted() {\r\n    if (msg.sender == owner) _;\r\n    }\r\n    constructor() public {\r\n    owner = msg.sender;\r\n    }\r\n    \r\n    uint nextId;\r\n    // Estrucutura del certificado académico digital\r\n    struct CAD{\r\n        uint id;\r\n        string dni;\r\n        string hashCAD;\r\n    }\r\n\r\n    // Arreglo de los certificados académicos digitales\r\n\r\n    CAD[] cads;\r\n\r\n    // La función es para crear o registrar el CAD en la Blockchain de Ethereum\r\n    // El guión bajo es un estandar de solidity para los parámetros\r\n    function registerCAD(string memory _dni, string memory _hashCAD, address _owner) public {\r\n        // Reutilizo la función para saber si el dni y certificado ya fue registrado para no duplicar información\r\n        bool registered = findHash(_hashCAD);\r\n        if(registered == false){\r\n            // Verificar que el propietario del despliegue del contrato sea el mismo para registrar\r\n            if (owner == _owner){\r\n                cads.push(CAD(nextId, _dni, _hashCAD));\r\n                nextId++;\r\n            }else{\r\n                revert(\"Intento registrar con una cuenta diferente al propietario del despliegue del contrato\");\r\n            }\r\n        }else{\r\n            revert(\"El certificado academico digital esta duplicado\");\r\n        }\r\n   }\r\n\r\n   // Esta función busca en el arreglo de CAD por dni y hash del CAD, devuelve un booleano\r\n   // El certificado a validar debe coincidir en el dni y el hash del CAD para obtner un valor de TRUE\r\n\r\n   function validateCAD(string memory _dni, string memory _hashCAD) public view returns(bool){\r\n       for(uint i = 0; i < cads.length; i++) {\r\n           if (keccak256(abi.encodePacked((cads[i].dni))) == keccak256(abi.encodePacked((_dni))) && keccak256(abi.encodePacked((cads[i].hashCAD))) == keccak256(abi.encodePacked((_hashCAD)))) {\r\n               return true;\r\n           }\r\n       }\r\n   }\r\n\r\n   function findHash(string memory _hashCAD) public view returns(bool){\r\n       for(uint i = 0; i < cads.length; i++) {\r\n           if (keccak256(abi.encodePacked((cads[i].hashCAD))) == keccak256(abi.encodePacked((_hashCAD)))) {\r\n               return true;\r\n           }\r\n       }\r\n   }\r\n\r\n   // Esta función busca el index de la ubicación en el arreglo para ser usado en las funciones de read, update y delete\r\n   function findIndex(string memory _dni, string memory _hashCAD) internal view returns (uint) {\r\n       for(uint i = 0; i < cads.length; i++) {\r\n           if (keccak256(abi.encodePacked((cads[i].dni))) == keccak256(abi.encodePacked((_dni))) && keccak256(abi.encodePacked((cads[i].hashCAD))) == keccak256(abi.encodePacked((_hashCAD)))) {\r\n               return i;\r\n           }\r\n       }\r\n       // En caso de no encontrar el documento indica el siguiente mensaje\r\n       revert('El certificado academico digital no fue encontrado');\r\n   }\r\n\r\n   // Obtener la información del CAD\r\n   function readCAD(string memory _dni, string memory _hashCAD) public view returns(uint, string memory, string memory){\r\n       uint index = findIndex(_dni,_hashCAD);\r\n       return (cads[index].id,cads[index].dni,cads[index].hashCAD);\r\n   }\r\n\r\n   // Actualizar la información del CAD\r\n   function updateCAD (string memory _dni, string memory _hashCAD) public {\r\n       uint index = findIndex(_dni,_hashCAD);\r\n       cads[index].dni = _dni;\r\n       cads[index].hashCAD = _hashCAD;\r\n   }\r\n\r\n   // Elimnar la información del CAD\r\n   // El eliminar los datos de Blockchain no es posible,lo unico que se puede hacer es resetear estos datos.\r\n   function deleteCAD(string memory _dni, string memory _hashCAD) public{\r\n       uint index = findIndex(_dni,_hashCAD);\r\n       delete cads[index];\r\n   }\r\n\r\n   // Función para obtener el número de registros de CAD\r\n   function numbersCADs () public view returns(uint){\r\n       uint size = cads.length;\r\n       return size;\r\n   }\r\n}",
  "sourcePath": "C:\\Users\\ASUS\\Documents\\PATO\\Tesis\\M-dulo-de-software-de-VCDA-por-Blockchain\\contracts\\StorageCAD.sol",
  "compiler": {
    "name": "solc",
    "version": "0.5.16+commit.9c3226ce.Emscripten.clang"
  },
  "schemaVersion": "3.4.3",
  "updatedAt": "2021-10-03T02:09:48.916Z",
  "networkType": "ethereum",
  "devdoc": {
    "methods": {}
  },
  "userdoc": {
    "methods": {}
  }
}