{
  "contractName": "StorageCDA",
  "abi": [
    {
      "constant": false,
      "inputs": [
        {
          "internalType": "string",
          "name": "_dni",
          "type": "string"
        },
        {
          "internalType": "string",
          "name": "_hashCDA",
          "type": "string"
        }
      ],
      "name": "createCDA",
      "outputs": [],
      "payable": false,
      "stateMutability": "nonpayable",
      "type": "function"
    },
    {
      "constant": true,
      "inputs": [
        {
          "internalType": "string",
          "name": "_dni",
          "type": "string"
        },
        {
          "internalType": "string",
          "name": "_hashCDA",
          "type": "string"
        }
      ],
      "name": "validateCDA",
      "outputs": [
        {
          "internalType": "bool",
          "name": "",
          "type": "bool"
        }
      ],
      "payable": false,
      "stateMutability": "view",
      "type": "function"
    },
    {
      "constant": true,
      "inputs": [
        {
          "internalType": "string",
          "name": "_dni",
          "type": "string"
        },
        {
          "internalType": "string",
          "name": "_hashCDA",
          "type": "string"
        }
      ],
      "name": "readCDA",
      "outputs": [
        {
          "internalType": "uint256",
          "name": "",
          "type": "uint256"
        },
        {
          "internalType": "string",
          "name": "",
          "type": "string"
        },
        {
          "internalType": "string",
          "name": "",
          "type": "string"
        }
      ],
      "payable": false,
      "stateMutability": "view",
      "type": "function"
    },
    {
      "constant": false,
      "inputs": [
        {
          "internalType": "string",
          "name": "_dni",
          "type": "string"
        },
        {
          "internalType": "string",
          "name": "_hashCDA",
          "type": "string"
        }
      ],
      "name": "updateCDA",
      "outputs": [],
      "payable": false,
      "stateMutability": "nonpayable",
      "type": "function"
    },
    {
      "constant": false,
      "inputs": [
        {
          "internalType": "string",
          "name": "_dni",
          "type": "string"
        },
        {
          "internalType": "string",
          "name": "_hashCDA",
          "type": "string"
        }
      ],
      "name": "deleteCDA",
      "outputs": [],
      "payable": false,
      "stateMutability": "nonpayable",
      "type": "function"
    },
    {
      "constant": true,
      "inputs": [],
      "name": "numbersCDAs",
      "outputs": [
        {
          "internalType": "uint256",
          "name": "",
          "type": "uint256"
        }
      ],
      "payable": false,
      "stateMutability": "view",
      "type": "function"
    }
  ],
  "bytecode": "0x608060405234801561001057600080fd5b50611241806100206000396000f3fe608060405234801561001057600080fd5b50600436106100625760003560e01c80631c993fab14610067578063484f7ebd146102a5578063875012941461040f578063997dd89914610561578063a1b7f2bb146106b3578063b3fd67f114610805575b600080fd5b6101b76004803603604081101561007d57600080fd5b810190808035906020019064010000000081111561009a57600080fd5b8201836020820111156100ac57600080fd5b803590602001918460018302840111640100000000831117156100ce57600080fd5b91908080601f016020809104026020016040519081016040528093929190818152602001838380828437600081840152601f19601f8201169050808301925050505050505091929192908035906020019064010000000081111561013157600080fd5b82018360208201111561014357600080fd5b8035906020019184600183028401116401000000008311171561016557600080fd5b91908080601f016020809104026020016040519081016040528093929190818152602001838380828437600081840152601f19601f820116905080830192505050505050509192919290505050610823565b604051808481526020018060200180602001838103835285818151815260200191508051906020019080838360005b838110156102015780820151818401526020810190506101e6565b50505050905090810190601f16801561022e5780820380516001836020036101000a031916815260200191505b50838103825284818151815260200191508051906020019080838360005b8381101561026757808201518184015260208101905061024c565b50505050905090810190601f1680156102945780820380516001836020036101000a031916815260200191505b509550505050505060405180910390f35b6103f5600480360360408110156102bb57600080fd5b81019080803590602001906401000000008111156102d857600080fd5b8201836020820111156102ea57600080fd5b8035906020019184600183028401116401000000008311171561030c57600080fd5b91908080601f016020809104026020016040519081016040528093929190818152602001838380828437600081840152601f19601f8201169050808301925050505050505091929192908035906020019064010000000081111561036f57600080fd5b82018360208201111561038157600080fd5b803590602001918460018302840111640100000000831117156103a357600080fd5b91908080601f016020809104026020016040519081016040528093929190818152602001838380828437600081840152601f19601f8201169050808301925050505050505091929192905050506109d7565b604051808215151515815260200191505060405180910390f35b61055f6004803603604081101561042557600080fd5b810190808035906020019064010000000081111561044257600080fd5b82018360208201111561045457600080fd5b8035906020019184600183028401116401000000008311171561047657600080fd5b91908080601f016020809104026020016040519081016040528093929190818152602001838380828437600081840152601f19601f820116905080830192505050505050509192919290803590602001906401000000008111156104d957600080fd5b8201836020820111156104eb57600080fd5b8035906020019184600183028401116401000000008311171561050d57600080fd5b91908080601f016020809104026020016040519081016040528093929190818152602001838380828437600081840152601f19601f820116905080830192505050505050509192919290505050610c2c565b005b6106b16004803603604081101561057757600080fd5b810190808035906020019064010000000081111561059457600080fd5b8201836020820111156105a657600080fd5b803590602001918460018302840111640100000000831117156105c857600080fd5b91908080601f016020809104026020016040519081016040528093929190818152602001838380828437600081840152601f19601f8201169050808301925050505050505091929192908035906020019064010000000081111561062b57600080fd5b82018360208201111561063d57600080fd5b8035906020019184600183028401116401000000008311171561065f57600080fd5b91908080601f016020809104026020016040519081016040528093929190818152602001838380828437600081840152601f19601f820116905080830192505050505050509192919290505050610c85565b005b610803600480360360408110156106c957600080fd5b81019080803590602001906401000000008111156106e657600080fd5b8201836020820111156106f857600080fd5b8035906020019184600183028401116401000000008311171561071a57600080fd5b91908080601f016020809104026020016040519081016040528093929190818152602001838380828437600081840152601f19601f8201169050808301925050505050505091929192908035906020019064010000000081111561077d57600080fd5b82018360208201111561078f57600080fd5b803590602001918460018302840111640100000000831117156107b157600080fd5b91908080601f016020809104026020016040519081016040528093929190818152602001838380828437600081840152601f19601f820116905080830192505050505050509192919290505050610d48565b005b61080d610dc1565b6040518082815260200191505060405180910390f35b600060608060006108348686610dd3565b90506001818154811061084357fe5b9060005260206000209060030201600001546001828154811061086257fe5b90600052602060002090600302016001016001838154811061088057fe5b9060005260206000209060030201600201818054600181600116156101000203166002900480601f0160208091040260200160405190810160405280929190818152602001828054600181600116156101000203166002900480156109265780601f106108fb57610100808354040283529160200191610926565b820191906000526020600020905b81548152906001019060200180831161090957829003601f168201915b50505050509150808054600181600116156101000203166002900480601f0160208091040260200160405190810160405280929190818152602001828054600181600116156101000203166002900480156109c25780601f10610997576101008083540402835291602001916109c2565b820191906000526020600020905b8154815290600101906020018083116109a557829003601f168201915b50505050509050935093509350509250925092565b600080600090505b600180549050811015610c2457836040516020018082805190602001908083835b60208310610a235780518252602082019150602081019050602083039250610a00565b6001836020036101000a0380198251168184511680821785525050505050509050019150506040516020818303038152906040528051906020012060018281548110610a6b57fe5b90600052602060002090600302016001016040516020018082805460018160011615610100020316600290048015610ada5780601f10610ab8576101008083540402835291820191610ada565b820191906000526020600020905b815481529060010190602001808311610ac6575b505091505060405160208183030381529060405280519060200120148015610c085750826040516020018082805190602001908083835b60208310610b345780518252602082019150602081019050602083039250610b11565b6001836020036101000a0380198251168184511680821785525050505050509050019150506040516020818303038152906040528051906020012060018281548110610b7c57fe5b90600052602060002090600302016002016040516020018082805460018160011615610100020316600290048015610beb5780601f10610bc9576101008083540402835291820191610beb565b820191906000526020600020905b815481529060010190602001808311610bd7575b505091505060405160208183030381529060405280519060200120145b15610c17576001915050610c26565b80806001019150506109df565b505b92915050565b6000610c388383610dd3565b905060018181548110610c4757fe5b9060005260206000209060030201600080820160009055600182016000610c6e9190611077565b600282016000610c7e9190611077565b5050505050565b6000610c9183836109d7565b9050600015158115151415610d43576001604051806060016040528060005481526020018581526020018481525090806001815401808255809150509060018203906000526020600020906003020160009091929091909150600082015181600001556020820151816001019080519060200190610d109291906110bf565b506040820151816002019080519060200190610d2d9291906110bf565b5050505060008081548092919060010191905055505b505050565b6000610d548383610dd3565b90508260018281548110610d6457fe5b90600052602060002090600302016001019080519060200190610d8892919061113f565b508160018281548110610d9757fe5b90600052602060002090600302016002019080519060200190610dbb92919061113f565b50505050565b60008060018054905090508091505090565b600080600090505b60018054905081101561101f57836040516020018082805190602001908083835b60208310610e1f5780518252602082019150602081019050602083039250610dfc565b6001836020036101000a0380198251168184511680821785525050505050509050019150506040516020818303038152906040528051906020012060018281548110610e6757fe5b90600052602060002090600302016001016040516020018082805460018160011615610100020316600290048015610ed65780601f10610eb4576101008083540402835291820191610ed6565b820191906000526020600020905b815481529060010190602001808311610ec2575b5050915050604051602081830303815290604052805190602001201480156110045750826040516020018082805190602001908083835b60208310610f305780518252602082019150602081019050602083039250610f0d565b6001836020036101000a0380198251168184511680821785525050505050509050019150506040516020818303038152906040528051906020012060018281548110610f7857fe5b90600052602060002090600302016002016040516020018082805460018160011615610100020316600290048015610fe75780601f10610fc5576101008083540402835291820191610fe7565b820191906000526020600020905b815481529060010190602001808311610fd3575b505091505060405160208183030381529060405280519060200120145b156110125780915050611071565b8080600101915050610ddb565b506040517f08c379a00000000000000000000000000000000000000000000000000000000081526004018080602001828103825260288152602001806111e56028913960400191505060405180910390fd5b92915050565b50805460018160011615610100020316600290046000825580601f1061109d57506110bc565b601f0160209004906000526020600020908101906110bb91906111bf565b5b50565b828054600181600116156101000203166002900490600052602060002090601f016020900481019282601f1061110057805160ff191683800117855561112e565b8280016001018555821561112e579182015b8281111561112d578251825591602001919060010190611112565b5b50905061113b91906111bf565b5090565b828054600181600116156101000203166002900490600052602060002090601f016020900481019282601f1061118057805160ff19168380011785556111ae565b828001600101855582156111ae579182015b828111156111ad578251825591602001919060010190611192565b5b5090506111bb91906111bf565b5090565b6111e191905b808211156111dd5760008160009055506001016111c5565b5090565b9056fe456c20636572746966696361646f206469676974616c206e6f2066756520656e636f6e747261646fa265627a7a723158207160e73e0f1a2c2bf2cfa8d7ad0923b3bcec00b7252b6461d15be2eb87ff552964736f6c63430005100032",
  "source": "// SPDX-License-Identifier: MIT\npragma solidity >=0.4.21 <0.7.0;\n\ncontract StorageCDA{\n    uint nextId;\n    // Estrucutura del certificado digital académico\n    struct CDA{\n        uint id;\n        string dni;\n        string hashCDA;\n    }\n\n    // Arreglo de los certificados digitales académicos\n    CDA[] cdas;\n\n    // La función es para crear o registrar el CDA en la Blockchain de Ethereum\n    // El guión bajo es un estándar de solidity para los parámetros\n    function createCDA(string memory _dni, string memory _hashCDA) public {\n      // Reutilizo la función para saber si el dni y certificado ya fue registrado para no duplicar información\n        bool registered = validateCDA(_dni,_hashCDA);\n        if(registered == false){\n            cdas.push(CDA(nextId,_dni,_hashCDA));\n            nextId++;\n        }\n   }\n\n   // Esta función busca en el arreglo de CDA por dni y hash del CDA, devuelve un booleano\n   // El certificado a validar debe coincidir en el dni y el hash del CDA para obtner un valor de TRUE\n\n   function validateCDA(string memory _dni, string memory _hashCDA) public view returns(bool){\n       for(uint i = 0; i < cdas.length; i++) {\n           if (keccak256(abi.encodePacked((cdas[i].dni))) == keccak256(abi.encodePacked((_dni))) && keccak256(abi.encodePacked((cdas[i].hashCDA))) == keccak256(abi.encodePacked((_hashCDA)))) {\n               return true;\n           }\n       }\n   }\n\n   // Esta función busca el index de la ubicación en el arreglo para ser usado en las funciones de read, update y delete\n   function findIndex(string memory _dni, string memory _hashCDA) internal view returns (uint) {\n       for(uint i = 0; i < cdas.length; i++) {\n           if (keccak256(abi.encodePacked((cdas[i].dni))) == keccak256(abi.encodePacked((_dni))) && keccak256(abi.encodePacked((cdas[i].hashCDA))) == keccak256(abi.encodePacked((_hashCDA)))) {\n               return i;\n           }\n       }\n       // En caso de no encontrar el documento indica el siguiente mensaje\n       revert('El certificado digital no fue encontrado');\n   }\n\n   // Obtener la  información del CDA\n   function readCDA(string memory _dni, string memory _hashCDA) public view returns(uint, string memory, string memory){\n       uint index = findIndex(_dni,_hashCDA);\n       return (cdas[index].id,cdas[index].dni,cdas[index].hashCDA);\n   }\n\n   // Actualizar la  información del CDA\n   function updateCDA (string memory _dni, string memory _hashCDA) public {\n       uint index = findIndex(_dni,_hashCDA);\n       cdas[index].dni = _dni;\n       cdas[index].hashCDA = _hashCDA;\n   }\n\n   // Elimnar la  información del CDA\n   // El eliminar los datos de Blockchain no es posible,lo unico que se puede hacer es resetear estos datos.\n   function deleteCDA(string memory _dni, string memory _hashCDA) public{\n       uint index = findIndex(_dni,_hashCDA);\n       delete cdas[index];\n   }\n\n   // Función para obtener el número de registros de CDA\n   function numbersCDAs () public view returns(uint){\n       uint size = cdas.length;\n       return size;\n   }\n}\n",
  "sourcePath": "C:\\Users\\ASUS\\Documents\\PATO\\Tesis\\M-dulo-de-software-de-VCDA-por-Blockchain\\contracts\\StorageCDA.sol",
  "compiler": {
    "name": "solc",
    "version": "0.5.16+commit.9c3226ce.Emscripten.clang"
  },
  "schemaVersion": "3.4.3",
  "updatedAt": "2021-08-21T22:00:37.107Z",
  "devdoc": {
    "methods": {}
  },
  "userdoc": {
    "methods": {}
  }
}